{
  "_format": "hh-sol-artifact-1",
  "contractName": "WhackAMole",
  "sourceName": "contracts/WhackAMole.sol",
  "abi": [
    {
      "anonymous": false,
      "inputs": [
        {
          "indexed": true,
          "internalType": "address",
          "name": "player",
          "type": "address"
        },
        {
          "indexed": false,
          "internalType": "uint256",
          "name": "score",
          "type": "uint256"
        }
      ],
      "name": "NewHighScore",
      "type": "event"
    },
    {
      "anonymous": false,
      "inputs": [
        {
          "indexed": true,
          "internalType": "address",
          "name": "player",
          "type": "address"
        },
        {
          "indexed": false,
          "internalType": "uint256",
          "name": "score",
          "type": "uint256"
        }
      ],
      "name": "ScoreSubmitted",
      "type": "event"
    },
    {
      "inputs": [
        {
          "internalType": "address",
          "name": "player",
          "type": "address"
        }
      ],
      "name": "getHighScore",
      "outputs": [
        {
          "internalType": "uint256",
          "name": "",
          "type": "uint256"
        }
      ],
      "stateMutability": "view",
      "type": "function"
    },
    {
      "inputs": [],
      "name": "getTopScores",
      "outputs": [
        {
          "components": [
            {
              "internalType": "address",
              "name": "player",
              "type": "address"
            },
            {
              "internalType": "uint256",
              "name": "score",
              "type": "uint256"
            }
          ],
          "internalType": "struct WhackAMole.PlayerScore[]",
          "name": "",
          "type": "tuple[]"
        }
      ],
      "stateMutability": "view",
      "type": "function"
    },
    {
      "inputs": [
        {
          "internalType": "address",
          "name": "",
          "type": "address"
        }
      ],
      "name": "highScores",
      "outputs": [
        {
          "internalType": "uint256",
          "name": "",
          "type": "uint256"
        }
      ],
      "stateMutability": "view",
      "type": "function"
    },
    {
      "inputs": [
        {
          "internalType": "uint256",
          "name": "",
          "type": "uint256"
        }
      ],
      "name": "players",
      "outputs": [
        {
          "internalType": "address",
          "name": "",
          "type": "address"
        }
      ],
      "stateMutability": "view",
      "type": "function"
    },
    {
      "inputs": [
        {
          "internalType": "uint256",
          "name": "score",
          "type": "uint256"
        }
      ],
      "name": "submitScore",
      "outputs": [],
      "stateMutability": "nonpayable",
      "type": "function"
    },
    {
      "inputs": [],
      "name": "totalGamesPlayed",
      "outputs": [
        {
          "internalType": "uint256",
          "name": "",
          "type": "uint256"
        }
      ],
      "stateMutability": "view",
      "type": "function"
    }
  ],
  "bytecode": "0x608060405234801561001057600080fd5b50610994806100206000396000f3fe608060405234801561001057600080fd5b50600436106100615760003560e01c8062d8e1041461006657806357171a48146100965780635c492129146100c6578063aff0b297146100e4578063ee5c4e5d14610100578063f71d96cb1461011e575b600080fd5b610080600480360381019061007b919061060a565b61014e565b60405161008d9190610650565b60405180910390f35b6100b060048036038101906100ab919061060a565b610166565b6040516100bd9190610650565b60405180910390f35b6100ce6101ae565b6040516100db9190610650565b60405180910390f35b6100fe60048036038101906100f99190610697565b6101b4565b005b6101086103e2565b60405161011591906107c0565b60405180910390f35b61013860048036038101906101339190610697565b610538565b60405161014591906107f1565b60405180910390f35b60006020528060005260406000206000915090505481565b60008060008373ffffffffffffffffffffffffffffffffffffffff1673ffffffffffffffffffffffffffffffffffffffff168152602001908152602001600020549050919050565b60025481565b600081116101f7576040517f08c379a00000000000000000000000000000000000000000000000000000000081526004016101ee90610869565b60405180910390fd5b6002600081548092919061020a906108b8565b91905055503373ffffffffffffffffffffffffffffffffffffffff167fa578df9b0453d14d7ed8615ee0e9d58f70e041e91fc5865e3b71f81ea05296c0826040516102559190610650565b60405180910390a260008060003373ffffffffffffffffffffffffffffffffffffffff1673ffffffffffffffffffffffffffffffffffffffff1681526020019081526020016000205403610307576001339080600181540180825580915050600190039060005260206000200160009091909190916101000a81548173ffffffffffffffffffffffffffffffffffffffff021916908373ffffffffffffffffffffffffffffffffffffffff1602179055505b6000803373ffffffffffffffffffffffffffffffffffffffff1673ffffffffffffffffffffffffffffffffffffffff168152602001908152602001600020548111156103df57806000803373ffffffffffffffffffffffffffffffffffffffff1673ffffffffffffffffffffffffffffffffffffffff168152602001908152602001600020819055503373ffffffffffffffffffffffffffffffffffffffff167fe265ae360c48dc3c258727b698cc5a994da69b0d32354166f39003a488919443826040516103d69190610650565b60405180910390a25b50565b60606000600180549050905060008167ffffffffffffffff81111561040a57610409610900565b5b60405190808252806020026020018201604052801561044357816020015b610430610577565b8152602001906001900390816104285790505b50905060005b8281101561052f576000600182815481106104675761046661092f565b5b9060005260206000200160009054906101000a900473ffffffffffffffffffffffffffffffffffffffff16905060405180604001604052808273ffffffffffffffffffffffffffffffffffffffff1681526020016000808473ffffffffffffffffffffffffffffffffffffffff1673ffffffffffffffffffffffffffffffffffffffff168152602001908152602001600020548152508383815181106105105761050f61092f565b5b6020026020010181905250508080610527906108b8565b915050610449565b50809250505090565b6001818154811061054857600080fd5b906000526020600020016000915054906101000a900473ffffffffffffffffffffffffffffffffffffffff1681565b6040518060400160405280600073ffffffffffffffffffffffffffffffffffffffff168152602001600081525090565b600080fd5b600073ffffffffffffffffffffffffffffffffffffffff82169050919050565b60006105d7826105ac565b9050919050565b6105e7816105cc565b81146105f257600080fd5b50565b600081359050610604816105de565b92915050565b6000602082840312156106205761061f6105a7565b5b600061062e848285016105f5565b91505092915050565b6000819050919050565b61064a81610637565b82525050565b60006020820190506106656000830184610641565b92915050565b61067481610637565b811461067f57600080fd5b50565b6000813590506106918161066b565b92915050565b6000602082840312156106ad576106ac6105a7565b5b60006106bb84828501610682565b91505092915050565b600081519050919050565b600082825260208201905092915050565b6000819050602082019050919050565b6106f9816105cc565b82525050565b61070881610637565b82525050565b60408201600082015161072460008501826106f0565b50602082015161073760208501826106ff565b50505050565b6000610749838361070e565b60408301905092915050565b6000602082019050919050565b600061076d826106c4565b61077781856106cf565b9350610782836106e0565b8060005b838110156107b357815161079a888261073d565b97506107a583610755565b925050600181019050610786565b5085935050505092915050565b600060208201905081810360008301526107da8184610762565b905092915050565b6107eb816105cc565b82525050565b600060208201905061080660008301846107e2565b92915050565b600082825260208201905092915050565b7f53636f7265206d7573742062652067726561746572207468616e203000000000600082015250565b6000610853601c8361080c565b915061085e8261081d565b602082019050919050565b6000602082019050818103600083015261088281610846565b9050919050565b7f4e487b7100000000000000000000000000000000000000000000000000000000600052601160045260246000fd5b60006108c382610637565b91507fffffffffffffffffffffffffffffffffffffffffffffffffffffffffffffffff82036108f5576108f4610889565b5b600182019050919050565b7f4e487b7100000000000000000000000000000000000000000000000000000000600052604160045260246000fd5b7f4e487b7100000000000000000000000000000000000000000000000000000000600052603260045260246000fdfea26469706673582212205b93b4a76e26e12677de9f00cabaa9c08b0d6736016ef82977ee39644d18b6d464736f6c63430008130033",
  "linkReferences": {},
  "deployedLinkReferences": {}
}